:020000040800F2
:10000000300800200D020008150200081702000841
:10001000190200081B0200081D0200080000000071
:100020000000000000000000000000001F020008A7
:10003000210200080000000023020008DF40000841
:1000400027020008270200082702000827020008EC
:10005000270200082702000869070008B507000802
:1000600027020008270200082702000827020008CC
:1000700027020008270200082702000827020008BC
:1000800027020008270200082702000827020008AC
:10009000270200082702000827020008BF070008FF
:1000A000270200082702000827020008270200088C
:1000B000270200082702000827020008270200087C
:1000C000270200082702000827020008270200086C
:1000D000270200082702000827020008270200085C
:1000E000270200082702000827020008270200084C
:1000F0005D420008270200082702000827020008C6
:10010000270200082702000827020008270200082B
:10011000270200082702000827020008270200081B
:10012000270200082702000827020008270200080B
:1001300027020008270200082702000827020008FB
:1001400027020008270200082702000827020008EB
:1001500027020008270200082702000827020008DB
:1001600027020008270200082702000827020008CB
:1001700027020008270200082702000800000000EC
:1001800027020008270200082702000827020008AB
:10019000270200082702000827020008270200089B
:1001A000270200082702000827020008270200088B
:1001B000270200082702000827020008270200087B
:1001C000270200082702000800000000270200089C
:1001D000270200082702000827020008270200085B
:1001E000270200082702000827020008270200084B
:1001F0002702000827020008DFF80CD000F07EF884
:100200000048004721510008300800200648804778
:1002100006480047FEE7FEE7FEE7FEE7FEE7FEE7EB
:10022000FEE7FEE7FEE7FEE7F9410008F9010008F6
:100230002DE9F05F0546002092469B46884606461B
:10024000814640241BE0284641464746224600F0AE
:1002500045F853465A46C01A914110D311461846E4
:10026000224600F02CF82D1A67EB01084F46224673
:100270000120002100F023F817EB00094E41201E59
:10028000A4F10104DFDC484631462A464346BDE876
:10029000F09F30B50B46014600202022012409E0E2
:1002A00021FA02F59D4205D303FA02F5491B04FA2F
:1002B00002F52844151EA2F10102F1DC30BD202A0E
:1002C00004DB203A00FA02F1002070479140C2F1AD
:1002D000200320FA03F3194390407047202A04DBDF
:1002E000203A21FA02F00021704721FA02F3D040AF
:1002F000C2F120029140084319467047064C074D51
:1003000006E0E06840F0010394E8070098471034E5
:10031000AC42F6D3FFF774FFA0550008C0550008A3
:1003200010B504461E48006801280FD10022402164
:100330001C4800F085FB012000F046FA0122402114
:10034000184800F07DFB002015490860144800683B
:10035000022810D100224021124800F071FB40F227
:10036000145000F031FA012240210E4800F068FBE1
:1003700000200B4908600A48006803280FD10022BA
:100380004021084800F05CFB322000F01DFA0122F9
:100390004021044800F054FB00200149086010BDD2
:1003A00010000020000C024010B504464021164801
:1003B00000F03EFB154908700846007818BB002283
:1003C0002021134800F03CFB00221021104800F0CF
:1003D00037FB002208210E4800F032FB01220221E7
:1003E0000C4800F02DFB01200B49086000200B4950
:1003F000087001200A49086000200A4908600A497B
:1004000008700A49087010BD00080240350000203D
:10041000000C0240001802401000002004000020E0
:100420000C00002030000020050000200600002005
:100430001CB504468021374800F0FAFA36490870A6
:1004400008460078002846D1012034490860344825
:10045000007834490860002002F082FE4FF6FF70F9
:10046000EF2340F23F1200210090084602F094FC76
:10047000002004214FF478431722CDE900104221D7
:1004800029A002F01BFE002004214FF478434922EA
:10049000CDE900108A2127A002F010FE00200421DF
:1004A0004FF478437C22CDE90010712122A002F0A4
:1004B00005FE002003214FF6FF73C822CDE900108E
:1004C00035211FA002F0FAFD002021490870032009
:1004D000204908601DE000201049086011480068AC
:1004E00018B110480068012805D1002002F038FE3C
:1004F00000200B4908700B480068022809D1012030
:10050000154908601548006800F02AF802200449DF
:1005100008701CBD000C02403400002020000020A8
:10052000040000202400002054686520646F6F726E
:1005300000000000697300004F70656E000000004D
:10054000506C6561736520436C6F7365000000003B
:1005500006000020100000200C00002030000020C9
:100560007CB5064668480078012803D067480068D3
:10057000002872D16648006801287ED1002002F070
:10058000EFFD4FF6FF70EF2340F23F120021009085
:10059000084602F001FC002003214FF6FF731722EA
:1005A000CDE900100F215BA002F088FD4FF6FF702F
:1005B00001234FF4A072A0210090002002F042FD20
:1005C0004FF6FF7050230122A0210090084602F050
:1005D00039FD002004214FF6FF73B622CDE900104B
:1005E000B42150A002F06AFD50480078012804D0E0
:1005F00002280DD0032820D115E04FF478401623AF
:100600001A46BD2100904FF48C7002F01BFD14E0DF
:100610004FF4FC6016231A46BD2100904FF48C70F5
:1006200002F010FD09E01F2016231A46BD2100909C
:100630004FF48C7002F006FD00BF00BF3248007816
:1006400068B9002004214FF6FF73B622CDE90010EF
:10065000162137A002F032FD0CE053E00DE000203F
:1006600004214FF6FF73B622CDE90010162132A007
:1006700002F024FD00202649086031480068401C33
:1006800020BB002220212F4800F0DAF9002210219F
:100690002C4800F0D5F9002208212A4800F0D0F9B2
:1006A00001220221284800F0CBF9022027490860E6
:1006B00000202749087001201549086000202049C2
:1006C000086024490870104908701BE01C48006845
:1006D0003C2190FBF1F201FB12041948006890FBE9
:1006E000F1F523462A461CA11E4804F027FB0020F2
:1006F0000A214FF6FF733C22CDE900100F21194863
:1007000002F0DCFC7CBD0000060000202000002080
:100710000C00002052656D61696E696E6720746916
:100720006D65000053544F5000000000070000208A
:1007300053544152540000005041555345000000AD
:1007400030000020000C0240001802401000002081
:100750000400002005000020253032643A253032A4
:10076000640000005C00002010B502210D4800F07C
:100770005FF930B101210C4800F05AF90B490870BB
:1007800009E00121084800F053F908B9012000E010
:1007900000200649087001200549087000F02EF875
:1007A00010BD0000000C0240001802404000002074
:1007B0003600002010B5022000F020F810BD10B562
:1007C000802000F01BF810BD70B5044600F03EF923
:1007D00006462546681C10B104480078054400BF51
:1007E00000F034F9801BA842FAD370BD4C00002001
:1007F00010B504460120FFF71BFE10BD10B50446DE
:1008000004480068204020B1024804602046FFF7F9
:10081000EFFF10BD143C0140F8B502460B46002125
:1008200000250024002000BFE4E0012606FA01F5BF
:100830001E6806EA0504AC4271D15E68022E02D041
:100840005E68122E13D1CF0802F1200656F8270059
:100850004E07F70E0F26BE40B0434F07FF0E1E692E
:10086000BE403043CF0802F1200646F8270010684A
:100870004F000326BE40B0431E7906F003064F002A
:10088000BE40304310605E68012E08D05E68022EC4
:1008900005D05E68112E02D05E68122E13D19068CA
:1008A0004F000326BE40B0434F00DE68BE403043D9
:1008B0009060506801268E40B0431E79C6F3001642
:1008C0008E4030435060D0684F000326BE40B04396
:1008D0004F009E68BE403043D0605E6806F0805690
:1008E000B6F1805FA8D100BF444E366846F480461A
:1008F000424F3E603E46366806F48046009600BF92
:1009000000BF3F4E8F0856F827008E07370F0F267F
:10091000BE40B0433B4EB24202D100262EE068E01A
:10092000394EB24201D1012628E0384EB24201D1FF
:10093000022623E0364EB24201D103261EE0354E98
:10094000B24201D1042619E0334EB24201D105264C
:1009500014E0324EB24201D106260FE0304EB242D0
:1009600001D107260AE02F4EB24201D1082605E048
:100970002D4EB24201D1092600E00A268F073F0F13
:10098000BE4030431E4E8F0846F82700274E306881
:10099000A0435E6806F48036B6F5803F00D1204360
:1009A000224E3060361D3068A0435E6806F4003683
:1009B000B6F5003F00D120431C4E361D3060361D79
:1009C0003068A0435E6806F48016B6F5801F00D13B
:1009D0002043164E08363060361D3068A0435E68EE
:1009E00006F40016B6F5001F00D120430F4E0C365A
:1009F0003060491C1029FFF418AFF8BD443802409C
:100A00000838014000000240000402400008024093
:100A1000000C024000100240001402400018024086
:100A2000001C02400020024000240240003C014023
:100A3000024613690B400BB1012000E00020704713
:100A40000AB1816101E00B048361704701480068CD
:100A50007047000044000020024692F84100202820
:100A60002DD100BF92F84000012801D1022070472B
:100A7000012082F8400000BF242082F84100106865
:100A8000006820F00100136818601068006820F406
:100A90008050136818601068006808431368186075
:100AA0001068006840F0010013681860202082F888
:100AB000410000BF002082F8400000BFD7E70220BD
:100AC000D5E710B502460B46002192F841002028D8
:100AD0002AD100BF92F84000012801D1022010BDA8
:100AE000012082F8400000BF242082F841001068F5
:100AF000006820F00100146820601068016821F48B
:100B0000706141EA0321106801601068006840F0DC
:100B1000010014682060202082F8410000BF0020FE
:100B200082F8400000BFDAE70220D8E710B504469B
:100B30000CB9012010BD94F8410028B9002084F8B8
:100B40004000204600F00EFA242084F8410020687E
:100B5000006820F0010021680860606820F0706083
:100B6000216808612068806820F40040216888605E
:100B7000E068012805D1A06840F400402168886041
:100B800004E0A06840F4044021688860E06802281E
:100B900002D18002216848602068406813490843F8
:100BA000216848602068C06820F400402168C8605F
:100BB000D4E904010843A16940EA01202168C86022
:100BC000D4E907010843216808602068006840F004
:100BD00001002168086000206064202084F8410042
:100BE0000020206384F8420000BFA3E700800002D9
:100BF0002DE9FC5F0446894692469B46DDE90C7868
:100C00000E9E002594F8410020287DD117B1B8F13F
:100C1000000F02D10120BDE8FC9F00BF94F8400006
:100C2000012801D10220F6E7012084F8400000BF2E
:100C3000FFF70CFF054619230122D103204600953A
:100C400001F076FF08B10320E5E7222084F8410097
:100C5000402084F84200002060646762A4F82A8083
:100C600060635B46524649462046CDE9006501F087
:100C7000B5FE80B1606C042806D100BF002084F866
:100C8000400000BF0120C6E700BF002084F84000FC
:100C900000BF0320BFE7608DFF280CD9FF2020850F
:100CA0004048009094F828204FF080734946204631
:100CB00001F024FF0BE0608D20853A48009094F805
:100CC00028204FF000734946204601F017FF00BF6F
:100CD0003346002204212046009501F029FF08B187
:100CE000032098E72068406AC1B2626A501C6062C3
:100CF0001170208D401E2085608D401E6085208DE6
:100D000048BB608D38B300E049E0334600228021C3
:100D10002046009501F00CFF08B103207BE7608DB1
:100D2000FF280CD9FF2020850020009094F828206F
:100D30004FF080734946204601F0E0FE0BE0608DE5
:100D400020850020009094F828204FF00073494639
:100D5000204601F0D3FE608D0028B9D12A463146E5
:100D6000204601F010FF30B1606C042801D1012051
:100D700051E703204FE720202168C86120684068C0
:100D80000949084021684860202084F8410000207B
:100D900084F8420000BF84F8400000BF3BE7022017
:100DA00039E700000024008000E800FE2DE9FC5F28
:100DB0000446894692469B46DDE90C780E9E002546
:100DC00094F8410020286ED117B1B8F1000F02D17C
:100DD0000120BDE8FC9F00BF94F84000012801D12C
:100DE0000220F6E7012084F8400000BFFFF72EFE46
:100DF000054619230122D1032046009501F098FEF3
:100E000008B10320E5E7212084F84100402084F860
:100E10004200002060646762A4F82A8060635B4639
:100E2000524649462046CDE9006501F01FFE80B1DB
:100E3000606C042806D100BF002084F8400000BF89
:100E40000120C6E700BF002084F8400000BF032057
:100E5000BFE7608DFF280CD9FF202085002000907F
:100E600094F828204FF080734946204601F046FE52
:100E70000BE0608D20850020009094F828204FF032
:100E800000734946204601F039FE00BF2A4631462C
:100E9000204601F0A3FE38B1606C042801D1012086
:100EA00097E7032095E759E0616A481C606208787B
:100EB00021688862608D401E6085208D401E2085DF
:100EC000208D38BB608D28B3334600228021204618
:100ED000009501F02DFE08B103207AE7608DFF2810
:100EE0000CD9FF2020850020009094F828204FF096
:100EF00080734946204601F001FE0BE0608D20859D
:100F00000020009094F828204FF0007349462046B6
:100F100001F0F4FD608D0028B8D12A463146204604
:100F200001F031FE30B1606C042801D1012050E79E
:100F300003204EE720202168C861206840680849E6
:100F4000084021684860202084F84100002084F88F
:100F5000420000BF84F8400000BF3AE7022038E7B3
:100F600000E800FE10B586B00446114920688842AA
:100F70001CD14FF440700190122002900120039088
:100F8000032004900420059001A90A48FFF744FCBF
:100F900000BF0948006840F400100749086008468F
:100FA000006800F40010009000BF00BF06B010BD44
:100FB00000540040000402404038024003480068EA
:100FC000034909780844014908607047440000203B
:100FD0004C00002010B50A48006840F40070084931
:100FE00008600846006840F480700860032000F044
:100FF000C5F8002000F006F800F02AF8002010BD27
:10100000003C024070B504460E4800784FF47A71F7
:10101000B1FBF0F00C490968B1FBF0F5284601F08E
:10102000E7F908B1012070BD102C07D2002221463B
:10103000501E00F064F80548046001E00120F2E76A
:101040000020F0E74C000020500000204800002065
:1010500008B500BF2248006840F080502049086071
:101060000846006800F08050009000BF00BF00BF3D
:10107000081D006840F48040091D086008460068AB
:1010800000F48040009000BF00BF052000F076F81B
:10109000002211466FF00B0000F031F800221146DB
:1010A0006FF00A0000F02BF8002211466FF00900E3
:1010B00000F025F800221146501F00F020F8002211
:1010C0001146101F00F01BF800221146901E00F080
:1010D00016F800221146501E00F011F808BD00005D
:1010E0004038024000BF00F01F0201219140420938
:1010F000920002F1E022C2F8001100BF70472DE912
:10110000F05F80460D461646002702F04FFE074668
:1011100039462A46334601F00700C0F1070ABAF102
:10112000040F02D94FF0040A01E0C0F1070AD146CA
:1011300000F1040ABAF1070F02D24FF0000A01E0F1
:10114000A0F1030AD4464FF0010A0AFA09FAAAF1FB
:10115000010A0AEA020A0AFA0CFA4FF0010B0BFA2A
:101160000CFBABF1010B0BEA030B4AEA0B04214623
:10117000404602F023FEBDE8F09F000000BF00F0F3
:101180000702064B19684FF6FF031940044B0B4347
:1011900043EA0221014B196000BF70470CED00E0EB
:1011A0000000FA0538B5002400BF2048006840F070
:1011B00080501E4908600846006800F0805000908A
:1011C00000BF00BF1A48006840F48030184908602A
:1011D000FFF73CFC044607E0FFF738FC001BB0F5C6
:1011E0007A7F01D9032038BD1148406800F480306F
:1011F000B0F5803FF0D10E48006840F400300C4953
:101200000860FFF723FC044607E0FFF71FFC001B04
:10121000B0F57A7F01D90320E5E70548406800F47E
:101220000030B0F5003FF0D10020DCE7403802404C
:10123000007000402DE9F8430446002600250027F1
:10124000A846A946207800F0010088B100BFFE48FA
:10125000006820F40000FC49086008460068616BE3
:101260000843F949086000BF606B08B94FF00108F6
:10127000206800F40020B0F5002F13D1F24884302C
:10128000006820F44010E16B0843EF4984310860A6
:10129000E06BB0F5801F01D14FF00108E06B08B999
:1012A0004FF00109206800F48010B0F5801F13D1C1
:1012B000E5488430006820F44000216C0843E2498E
:1012C00084310860206CB0F5800F01D14FF0010827
:1012D000206C08B94FF00109206800F08070B0F16F
:1012E000807F01D14FF00108207800F020002028F5
:1012F00070D100BFD4483830006840F08050D249E7
:10130000383108600846006800F08050009000BF47
:1013100000BFCE48006840F48070CC490860FFF7F9
:1013200095FB064607E0FFF791FB801B642802D976
:101330000320BDE8F883C548006800F480700028E9
:10134000F1D0C1486830006800F4407585B3208E44
:1013500000F44070A8422BD0BB486830006820F4ED
:101360004075B9486830006840F48030B64968314B
:1013700008600846006820F4803008600846056070
:10138000006800F0010098B1FFF760FB064608E036
:10139000FFF75CFB801B41F28831884201D90320B2
:1013A000C7E7A94868300068C0F340000028EFD0C4
:1013B00000BF208E00F44070B0F5407F0BD1A248F2
:1013C000006820F4F810A24A216B114008439E499E
:1013D000086006E010E09C48006820F4F8109A4984
:1013E0000860994868300068218EC1F30B010843FA
:1013F00095496831086000BF207800F0100010287F
:1014000010D100BF90488430006820F080708E4971
:101410008431086008460068A16B08438A4984311A
:10142000086000BF208800F48040B0F5804F09D1EB
:1014300085488830006820F44030616E0843824956
:1014400088310860208800F40040B0F5004F09D1D1
:101450007D488830006820F44020A16E08437A4916
:1014600088310860206800F48030B0F5803F09D1F1
:1014700075488830006820F44010E16E08437249D6
:1014800088310860206800F40030B0F5003F09D1D1
:101490006D488830006820F44000216F08436A4995
:1014A00088310860207800F04000402809D1664863
:1014B0008830006820F00300616C0843624988317D
:1014C0000860207800F08000802809D15E488830CC
:1014D000006820F00C00A16C08435B49883108606B
:1014E000208800F48070B0F5807F09D1564888309C
:1014F000006820F03000E16C0843534988310860EF
:10150000208800F40070B0F5007F09D14E48883083
:10151000006820F0C000216D08434B498831086005
:10152000208800F48060B0F5806F09D1464888308B
:10153000006820F44070616D0843434988310860B9
:10154000208800F40060B0F5006F09D13E48883073
:10155000006820F44060A16D08433B498831086071
:10156000208800F48050B0F5805F09D1364888307B
:10157000006820F44050E16D084333498831086029
:10158000208800F40050B0F5005F09D12E48883063
:10159000006820F44040216E08432B4988310860E0
:1015A000206800F48000B0F5800F09D1264888300B
:1015B000006820F08060A16F0843234988310860EB
:1015C000206800F40010B0F5001F0FD11E488830CD
:1015D000006820F00060E16F08431B498831086013
:1015E000E06FB0F1006F01D14FF00109207800F0F9
:1015F0000800082801D14FF00109206800F480207C
:10160000B0F5802F09D110488830006820F0407074
:10161000616F08430C4988310860206800F40000BD
:10162000B0F5000F0AD108488830006820F08050DB
:10163000D4F880100843044988310860206800F01D
:101640008060B0F1806F05E0083802400070004013
:10165000FFFCFF0F08D1CC48006820F00050D4F800
:1016600084100843C8490860206800F00060B0F1A9
:10167000006F0AD1C448001F006820F00070D4F841
:1016800088100843C049091F0860206800F0805096
:10169000B0F1805F0AD1BC48001F006820F0806074
:1016A000D4F88C100843B849091F0860B8F1010F3D
:1016B00003D02068B0F1007F7ED1B3489038006835
:1016C00020F08060B04990390860FFF7BFF9064606
:1016D00006E0FFF7BBF9801B642801D9032028E648
:1016E000A94890380068C0F3C0600028F1D1207884
:1016F00000F00100B8B1606BA8B9A3480C380068CD
:10170000C0F30145A0480C380068C0F30367606867
:10171000800140EA054040EA0761207A41EA007012
:1017200099490C390860206800F40020B0F5002FBA
:1017300003D1E06BB0F5801F09D0206800F4801061
:10174000B0F5801F24D1206CB0F5800F20D18E48D9
:101750000C380068C0F301458B480C380068C0F3B2
:1017600002776068800140EA0541207B41EA006021
:1017700040EA077084490C3908608348001F0068FC
:1017800020F01F00616A491E08437F49091F086055
:10179000206800F08070B0F1807F17D17A480C3853
:1017A0000068C0F3036578480C380068C0F302771E
:1017B00060688101208A00E036E041EA004040EAAA
:1017C000056040EA077070490C390860206800F035
:1017D0000070B0F1007F0DD160688101208A41EA7C
:1017E0000041207B41EA0061207A41EA00706649AD
:1017F0000C39086064489038006840F080606249A5
:1018000090390860FFF722F9064606E0FFF71EF957
:10181000801B642801D903208BE55B489038006861
:10182000C0F3C0600028F1D0B9F1010F7ED1564855
:101830009038006820F08050534990390860FFF7D5
:1018400005F9064606E0FFF701F9801B642801D977
:1018500003206EE54C4890380068C0F340700028C3
:10186000F1D1206800F40020B0F5002F01D1E06B29
:1018700038B1206800F48010B0F5801F22D1206CB0
:1018800000BB414808380068C0F301453E480838AD
:101890000068C0F302776069800140EA0541207E5C
:1018A00041EA006040EA0770374908390860081DBE
:1018B000006820F4F851A06A401E41EA0020324935
:1018C000091F0860206800F40010B0F5001F19D14E
:1018D000E06FB0F1006F15D12B4808380068C0F3F5
:1018E0000365294808380068C0F302776069810100
:1018F000208C41EA004040EA056040EA0770224936
:1019000008390860207800F00800082820D11E4817
:1019100008380068C0F303651B4808380068C0F346
:1019200001476069800140EA074000E02AE040EAA0
:101930000561207F41EA0070134908390860081DDD
:10194000006820F44030E16A08430F49091F08602D
:101950000D489038006840F080500B49903908607D
:10196000FFF774F8064606E0FFF770F8801B64285E
:1019700001D90320DDE4044890380068C0F34070CA
:101980000028F1D00020D4E49038024070B504461D
:101990000D4600260CB9012070BD5C48006800F0BF
:1019A0000F00A8420ED25948006820F00F002843CB
:1019B000564908600846006800F00F00A84201D0B0
:1019C0000120E9E7207800F0020002281DD12078EC
:1019D00000F00400042805D14D48006840F4E050B0
:1019E0004B490860207800F00800082805D14848D5
:1019F000006840F46040464908604548006820F0AF
:101A0000F000A168084342490860207800F0010016
:101A100090B36068012807D13D4808380068C0F3DA
:101A20004040A0B90120B7E76068022807D13848D4
:101A300008380068C0F3406048B90120ACE734487A
:101A400008380068C0F3400008B90120A4E7304816
:101A5000006820F00300616808432D490860FEF724
:101A6000F5FF064609E0FEF7F1FF801B41F28831E1
:101A7000884202D903208FE707E02548006800F07C
:101A80000C006168B0EB810FEDD12048006800F0D8
:101A90000F00A8420ED91D48006820F00F0028430F
:101AA0001A4908600846006800F00F00A84201D0FB
:101AB000012071E7207800F00400042807D11448C1
:101AC000006820F4E050E16808431149086020787C
:101AD00000F00800082808D10D48006820F4604094
:101AE000216940EAC1000A49086000F03DF8084950
:101AF0000968C1F30311074A515CC84006490860F0
:101B00000020FFF77FFA002046E70000003C02407B
:101B1000083802408855000850000020014800683D
:101B2000704700005000002000B5FFF7F7FF0449A0
:101B30000968C1F38221034A515CC84000BD00001E
:101B4000083802409855000800B5FFF7E7FF044940
:101B50000968C1F34231034A515CC84000BD00002E
:101B600008380240985500082DE9F0470024002568
:101B70000026A1462548006800F00C0020B104288A
:101B800005D008283AD105E0DFF8849039E0DFF885
:101B9000849036E01D48001F006800F03F041B4899
:101BA000001F006800F4800078B11A481749091F27
:101BB0000968C1F38811A0FB017001462246002389
:101BC0003846FEF735FB05460EE011480F49091F60
:101BD0000968C1F38811A0FB017001462246002369
:101BE0003846FEF725FB05460848001F0068C0F38D
:101BF0000140401C4600B5FBF6F902E0DFF810900A
:101C000000BF00BF4846BDE8F0870000083802402A
:101C10000024F40000127A00F8B5044600260CB93E
:101C20000120F8BD207800F00100002871D0F848AC
:101C3000006800F00C0004280DD0F548006800F0A2
:101C40000C00082813D1F248001F006800F480003F
:101C5000B0F5800F0BD1EE4808380068C0F3404063
:101C6000002869D06068002866D10120D9E700BF4C
:101C70006068B0F5803F08D1E5480838006840F456
:101C80008030E349083908602EE0606868B9E048B0
:101C90000838006820F48030DD49083908600846BB
:101CA000006820F4802008601EE06068B0F5A02F76
:101CB0000DD1D7480838006840F48020D44908394D
:101CC00008600846006840F4803008600CE0D048A6
:101CD0000838006820F48030CD490839086008468B
:101CE000006820F48020086000BF606890B1FEF7B3
:101CF000ADFE054606E0FEF7A9FE401B642801D9AB
:101D000003208EE7C24808380068C0F3404000282E
:101D1000F1D011E0FEF79AFE054606E0FEF796FECA
:101D2000401B642801D903207BE7B94808380068C4
:101D3000C0F340400028F1D1207800F002000228D2
:101D400069D1B348006800F00C0058B1B048006891
:101D500000F00C0008281CD1AD48001F006800F4FA
:101D60008000B0B9AA4808380068C0F3400020B12C
:101D7000E068012801D0012053E7A5480838006831
:101D800020F0F800216940EAC100A1490839086043
:101D900041E0E06828B39E480838006840F0010040
:101DA0009B4908390860FEF751FE054606E0FEF73C
:101DB0004DFE401B022801D9032032E79448083821
:101DC0000068C0F340000028F1D09148083800684E
:101DD00020F0F800216940EAC1008D490839086007
:101DE00019E08B480838006820F00100884908395C
:101DF0000860FEF72BFE054606E0FEF727FE401BB7
:101E0000022801D903200CE7814808380068C0F394
:101E100040000028F1D1207800F00800082836D1D1
:101E20006069D0B17A486C30006840F001007849B0
:101E30006C310860FEF70AFE054606E0FEF706FE76
:101E4000401B022801D90320EBE671486C30006882
:101E5000C0F340000028F1D019E06D486C300068F4
:101E600020F001006A496C310860FEF7EFFD05467D
:101E700006E0FEF7EBFD401B022801D90320D0E667
:101E800063486C300068C0F340000028F1D120782E
:101E900000F00400042874D15D483830006800F078
:101EA000805080B900BF5A483830006840F08050F8
:101EB0005749383108600846006800F080500090AB
:101EC00000BF00BF01265348006800F48070B0B91D
:101ED0005048006840F480704E490860FEF7B6FD37
:101EE000054606E0FEF7B2FD401B642801D9032039
:101EF00097E64848006800F480700028F2D000BFE0
:101F0000A068012808D142486830006840F001000C
:101F10003F49683108602DE0A06868B93C486830E6
:101F2000006820F001003A496831086008460068FE
:101F300020F0040008601DE0A06805280DD1344899
:101F40006830006840F00400314968310860084694
:101F5000006840F0010008600CE02D48683000681F
:101F600020F001002A49683108600846006820F026
:101F70000400086000BFA068A8B1FEF767FD054631
:101F800009E02EE0FEF762FD401B41F288318842F5
:101F900001D9032045E61E4868300068C0F34000C0
:101FA0000028EFD013E0FEF751FD054608E0FEF7EC
:101FB0004DFD401B41F28831884201D9032030E6B3
:101FC000134868300068C0F340000028EFD1012EAC
:101FD00007D10F483830006820F080500C49383164
:101FE0000860A069F0B30A48006800F00C000828F7
:101FF00068D0A06902284DD105480838006820F053
:102000008070034908390860FEF720FD05460AE0A4
:102010000838024000700040FEF718FD401B0228FF
:1020200001D90320FDE529480068C0F3406000287D
:10203000F2D1D4E907010843616A40EA8111012223
:10204000A06AC2EB500041EA00412C20005D41EA49
:1020500000613020005D41EA00701C49091D0860E4
:10206000081F00E030E0006840F08070091F086041
:10207000FEF7ECFC054606E0FEF7E8FC401B0228F4
:1020800001D90320CDE511480068C0F34060002865
:10209000F2D019E00D48006820F080700B4908600C
:1020A000FEF7D4FC054606E0FEF7D0FC401B0228F4
:1020B00001D90320B5E505480068C0F34060002859
:1020C000F2D101E00120ACE50020AAE50038024091
:1020D00010B504460CB9012010BD607A20B900206B
:1020E0002072204600F00CF8022060722068006820
:1020F00040F0040021680860012060720020EBE7D6
:1021000008B5094A016891420DD100BF0749096825
:1021100041F04001054A11601146096801F0400193
:10212000009100BF00BF08BD0008065034380240CF
:1021300070B504460CB9012070BD606A00B900BFDB
:102140000021A16294F85D0028B9002084F85C00A9
:10215000204600F053F8022084F85D0020680068F3
:1021600020F0400021680860E068B0F5E06F01D918
:10217000002501E04FF48055E068B0F5706F05D0A0
:10218000E068B0F5E06F01D00021A162206B40B99A
:10219000E068B0F5E06F02D90221216301E001217E
:1021A0002163D4E9010108432169084361690843B7
:1021B000218B01F400710843E1690843216A084357
:1021C000A16A0843216808600421A06901EA10405F
:1021D000616A0843616B0843E1680843284321684A
:1021E00048602068C06920F400602168C861002050
:1021F0002066012084F85D0000209DE710B586B0C0
:1022000004461149206888421CD100BF0F4800686D
:1022100040F480100D4908600846006800F4801002
:10222000009000BF00BF4FF4607001900220029048
:1022300000200390032004900520059001A9044884
:10224000FEF7EAFA06B010BD0050014044380240E3
:10225000001402402DE9F84304460D4617461E4679
:102260004FF00008C14600BF94F85C00012802D17D
:102270000220BDE8F883012084F85C0000BFFEF76F
:10228000E5FB804694F85D00012802D04FF002097A
:102290008FE005B117B94FF001098AE0032084F8F7
:1022A0005D0000202066A563A787E7872064A4F867
:1022B0004400A4F846002065E064A068B0F5004F33
:1022C00005D12068006840F48040216808602068DB
:1022D000006800F04000402805D02068006840F009
:1022E000400021680860E068B0F5E06F1ED919E091
:1022F0002068806800F00200022807D12888216841
:10230000C860AD1CE08F401EE0870BE03EB1701C42
:1023100040B1FEF79BFBA0EB0800B04202D34FF0A8
:10232000030946E0E08F0028E2D128E024E020689D
:10233000806800F00200022812D1E08F012807D93E
:1023400028882168C860AD1CE08F801EE08713E0FC
:1023500015F8010B21680873E08F401EE0870BE041
:102360003EB1701C40B1FEF771FBA0EB0800B0421B
:1023700002D34FF003091CE0E08F0028D7D142467A
:102380003146204601F0D0FD08B120202066A0682B
:1023900050B900BF002000902068C06800902068FD
:1023A0008068009000BF00BF206E08B14FF00109A7
:1023B00000BF012084F85D0000BF002084F85C00AD
:1023C00000BF484655E7042808D14FF0E0210969CD
:1023D00041F004014FF0E022116107E04FF0E021ED
:1023E000096921F004014FF0E02211617047704744
:1023F00070B504462546681EB0F1807F01D30120E8
:102400000FE0681E4FF0E02148610F214FF0FF30D0
:1024100001F0D4FC00204FF0E02188610720086122
:10242000002070BD10B5FFF7E2FF10BD7047704788
:1024300030B502460B4600BF92F83C00012801D19E
:10244000022030BD012082F83C0000BF10684168C6
:10245000106884680F4D1068A84203D00E4D1068B4
:10246000A84203D121F470015868014321F07001A2
:102470001868014324F080049868044310684160A0
:102480001068846000BF002082F83C0000BF00BFDD
:10249000D7E70000000001400004014010B50446E9
:1024A0000CB9012010BD94F83D0028B9002084F833
:1024B0003C00204600F00CF8022084F83D00211D6D
:1024C000206801F0F9FE012084F83D000020E9E7D2
:1024D00038B504461649206888420DD100BF15481A
:1024E000006840F00100134908600846006800F0E9
:1024F0000100009000BF19E00F492068884215D103
:1025000000BF0C48006840F002000A490860084615
:10251000006800F00200009000BF00BF002202210E
:102520002C20FEF7ECFD2C20FEF7DCFD38BD000072
:1025300000000140443802400004014001460868A0
:10254000C06840F001000A68D0600868006840F088
:1025500001000A6810600020704700002DE9F0417A
:1025600004460D46002600BF94F83C00012802D125
:102570000220BDE8F081012084F83C0000BF022069
:1025800084F83D00206886684148064026F47F466E
:1025900020688660286850283CD00CDC202861D058
:1025A00004DC002854D0102866D156E030285ED0D4
:1025B000402861D142E0602836D070280ED0B0F5B6
:1025C000805F03D0B0F5005F56D116E020688068C8
:1025D0002F4970310840216888604EE0D5E9021328
:1025E0006A68206801F0E0FE206886682848064096
:1025F00046F07706206886603FE0D5E902136A68F6
:10260000206801F0D1FE2068806840F48040216895
:10261000886032E0EA686968206801F0DBFE5021DA
:10262000206801F0CDFE28E0EA686968206801F0C2
:10263000E6FE6021206801F0C3FE1EE0EA686968DA
:10264000206801F0C7FE4021206801F0B9FE14E0C7
:102650000021206801F0B4FE0FE01021206801F095
:10266000AFFE0AE02021206801F0AAFE05E030213B
:10267000206801F0A5FE00E000BF00BF012084F843
:102680003D0000BF002084F83C0000BF00BF70E7A1
:1026900088FFFEFF704710B5044620680069C0F34C
:1026A0004000D8B12068C068C0F34000B0B16FF0FE
:1026B000020021680861012020772068806900F00D
:1026C000030018B12046FFF7E5FF05E0204600F0C3
:1026D000BEF8204600F0BCF8002020772068006992
:1026E000C0F38000D8B12068C068C0F38000B0B1EA
:1026F0006FF004002168086102202077206880695B
:1027000000F4407018B12046FFF7C4FF05E02046F2
:1027100000F09DF8204600F09BF80020207720680C
:102720000069C0F3C000D8B12068C068C0F3C00021
:10273000B0B16FF00800216808610420207720689C
:10274000C06900F0030018B12046FFF7A3FF05E0C1
:10275000204600F07CF8204600F07AF80020207730
:1027600020680069C0F30010D8B12068C068C0F3C9
:102770000010B0B16FF010002168086108202077C8
:102780002068C06900F4407018B12046FFF782FF4E
:1027900005E0204600F05BF8204600F059F80020E4
:1027A00020772068006900F0010058B12068C068F7
:1027B00000F0010030B16FF001002168086120468F
:1027C00000F047F820680069C0F3C01058B12068D5
:1027D000C068C0F3C01030B16FF08000216808619C
:1027E0002046FFF723FE20680069C0F3002058B19F
:1027F0002068C068C0F3C01030B16FF0800021685D
:1028000008612046FFF712FE20680069C0F38010BF
:1028100058B12068C068C0F3801030B16FF040003C
:1028200021680861204600F015F820680069C0F3AF
:10283000401058B12068C068C0F3401030B16FF04C
:102840002000216808612046FFF7F1FD10BD7047A8
:1028500070477047704710B504460CB9012010BD91
:10286000A06900B100E000BF94F8690028B9002019
:1028700084F86800204600F02BF8242084F86900D2
:102880002068006820F0010021680860204602F0FE
:102890000DF8012800D1E2E7606A10B1204601F08E
:1028A00069FF2068406820F49040216848602068F3
:1028B000806820F02A00216888602068006840F065
:1028C000010021680860204601F0C9FFC7E7000049
:1028D00010B586B004461149206888421CD100BF5B
:1028E0000F48006840F480200D49086008460068E1
:1028F00000F48020009000BF00BF4FF440700190B2
:1029000002200290002003900320049007200590ED
:1029100001A90448FDF780FF06B010BD0048004043
:1029200040380240000C024001688969C1F340014F
:1029300011B10021026891620168896901F0010109
:1029400029B90168896941F0010102689161704704
:1029500070B504460D46164620688069C0F3001025
:10296000002837D013E0681C88B125B1FEF76EF857
:10297000801BA8420BD9202084F84100002084F855
:10298000420000BF84F8400000BF032070BD2068F3
:102990008069C0F340100028E5D010202168C8618C
:1029A00020202168C8612046FFF7BEFF20684068EC
:1029B000094908402168486004206064202084F8A8
:1029C0004100002084F8420000BF84F8400000BFAE
:1029D0000120DBE70020D9E700E800FE2DE9F843FD
:1029E0000446894615461E46DDE908781E48F2B2BF
:1029F000002349460090204600F080F842463946C0
:102A0000204600F0EBF838B1606C042802D10120B8
:102A1000BDE8F8830320FBE7012E03D1E8B221686B
:102A2000886213E0C5F30720216888624246394670
:102A3000204600F0D3F830B1606C042801D10120A9
:102A4000E6E70320E4E7E8B2216888623B4600221B
:102A500040212046CDF8008000F06AF808B103203C
:102A6000D6E70020D4E70000002000802DE9F843DD
:102A70000446894615461E46DDE908781E48F2B22E
:102A8000C30249460090204600F038F842463946D5
:102A9000204600F0A3F838B1606C042802D1012070
:102AA000BDE8F8830320FBE7012E03D1E8B22168DB
:102AB000886213E0C5F307202168886242463946E0
:102AC000204600F08BF830B1606C042801D1012061
:102AD000E6E70320E4E7E8B2216888623B4600228B
:102AE00080212046CDF8008000F022F808B10320B4
:102AF000D6E70020D4E7000000200080F0B5059C58
:102B000005686D684FF4806606EA545666F0FC2648
:102B100046F4C046B543C1F309064FF47F0707EA00
:102B200002473E431E432643354306687560F0BDA9
:102B30002DE9F04104460E4617461D46DDF8188083
:102B400015E0681C98B12DB1FDF780FFA0EB0800DF
:102B5000A8420CD9202084F84100002084F84200CB
:102B600000BF84F8400000BF0320BDE8F08120686A
:102B700080693040B04201D1012000E00020B8421D
:102B8000DFD00020F1E770B504460D4616461DE083
:102B9000324629462046FFF7DBFE08B1012070BD12
:102BA00025B1FDF753FF801BA8420FD9606C40F0A0
:102BB00020006064202084F84100002084F8420056
:102BC00000BF84F8400000BF0320E8E72068806968
:102BD000C0F340100028DBD00020E0E770B50446C9
:102BE0000D4616461FE0324629462046FFF7B0FE46
:102BF00008B1012070BD681CA8B125B1FDF726FF02
:102C0000801BA8420FD9606C40F020006064202037
:102C100084F84100002084F8420000BF84F840009E
:102C200000BF0320E6E720688069C0F34000002869
:102C3000D9D00020DEE700002DE9FE4F81460F4687
:102C400090469A460C9CCB46BBF1200F02DA4FF01F
:102C5000000903E0ABF1200000F0FF0B002009E0C9
:102C60000BEB4B011F4A02EB4101095C01AA115415
:102C7000411CC8B20628F3DB0D980090E004030C59
:102C800004EB44004004020C4146384600F0DAF9F7
:102C9000002522E000261CE001A8415D0120B04093
:102CA0000140A1B1012C06D108EB0601781952466A
:102CB00000F010F90BE006FB048291B205FB0472F0
:102CC00090B223462246CDF800A000F0BBF9701C5C
:102CD000C6B2082EE0DB681CC5B2062DDADBBDE803
:102CE000FE8F0000485300082DE9FC5F07460D46A3
:102CF00000264FF4FA70B0EB450F01D92E4601E0E3
:102D00004FF4FA76012251022148FDF799FE002284
:102D10004FF480711E48FDF793FE38120190B246C1
:102D2000504602F0DBFA0446002004E001992154E9
:102D3000411C6754801CB042F8D34FEA4508B8FBE9
:102D4000F6F9B8FBF6F006FB10800090B9F1000F21
:102D50000CD04FF0000B07E0B2B20A2321460D4819
:102D6000FFF778FA0BF1010BCB45F5D3009882B24F
:102D70000A2321460748FFF76DFA01221102044891
:102D8000FDF75EFE204602F0A3F9BDE8FC9F0000BF
:102D900000080240DC0000202DE9F04F2DED028BF1
:102DA00081B006460F4614461D46DDF830804FF0D0
:102DB0000009CA46CB46002000909FED2F0AB0EED6
:102DC000408AA01B00EE100AB8EEC00AB0EE408A9E
:102DD000B5EEC08AF1EE10FA01D24FF0010B9FED73
:102DE000260AB0EE408AE81B00EE100AB8EEC00AD0
:102DF000B0EE408AB5EEC08AF1EE10FA01D20120A1
:102E00000090BBF1000F03D1A01B1FFA80F902E074
:102E1000301B1FFA80F943464A463946304600F0D7
:102E20002DF843464A462946304600F027F80098D8
:102E300018B9E81B1FFA80FA02E0781B1FFA80FA23
:102E4000434652463946304600F054F9434652460E
:102E50003946204600F04EF9B9F1000F02DCBAF114
:102E6000000F04DD42462946204600F033F801B049
:102E7000BDEC028BBDE8F08F000000002DE9F041B1
:102E800004460E4615461F4610480088844203DA61
:102E90000F480088864201DBBDE8F0816019401EC2
:102EA0000A490988884203DB08480088001B85B26C
:102EB0006019401E82B233463146204600F0A6FA21
:102EC00029463846FFF710FF00BFE5E70200002063
:102ED00000000020FEB504460D4616465548008801
:102EE000844203DA54480088854200DBFEBD00229C
:102EF0004FF400715148FDF7A3FD00224FF480719B
:102F00004E48FDF79DFD2A2000F076FA012251027D
:102F10004A48FDF795FD012211024848FDF790FD52
:102F200000224FF480714548FDF78AFD20128DF88C
:102F30000800E0B28DF80900601C000A8DF80A0054
:102F4000601CC0B28DF80B000123042202A93C488A
:102F5000FFF780F9012211023848FDF771FD0022C8
:102F60004FF400713548FDF76BFD00224FF480717E
:102F70003248FDF765FD2B2000F03EFA0122510298
:102F80002E48FDF75DFD012211022C48FDF758FD8A
:102F900000224FF480712948FDF752FD28128DF868
:102FA0000400E8B28DF80500681C000A8DF80600E0
:102FB000681CC0B28DF807000123042201A9204833
:102FC000FFF748F9012211021C48FDF739FD0022E4
:102FD0004FF400711948FDF733FD00224FF4807162
:102FE0001648FDF72DFD2C2000F006FA01225102B3
:102FF0001248FDF725FD012211021048FDF720FDC2
:1030000000224FF480710D48FDF71AFD30128DF843
:103010000000F0B28DF80100012302226946084841
:10302000FFF718F9012211020448FDF709FD00BF5E
:103030005CE70000020000200000002000080240C1
:10304000DC0000202DE9F04104460D4616461F46DF
:10305000DDF8188017480088844203DA1648008893
:10306000854201DBBDE8F081A019401E11490988A5
:10307000884203DB0F480088001B86B2E819401E17
:103080000D490988884203DB0B480088401B87B242
:10309000E819401E83B2A019401E82B2294620467C
:1030A00000F0B4F907FB06F14046FFF71DFE00BF34
:1030B000D8E7000002000020000000202DE9FC47B6
:1030C00004460D4617469846DDE90A690CE0CDE94D
:1030D000006914F8010B43463A462946FFF7ACFD58
:1030E000062000FB0650C5B220780028EFD1BDE8CD
:1030F000FC8700002DE9F04106460C4615461F46A8
:1031000010480088864203DA0F480088844201DBB9
:10311000BDE8F0816019401E0B490988884203DB35
:1031200009480088001B85B26019401E83B23246F0
:103130002146304600F06AF929463846FFF7D4FDAB
:1031400000BFE5E7020000200000002010B50122CA
:1031500091020248FDF774FC10BD00000008024017
:1031600010B504460848038808480288002108462C
:1031700000F04CF905480088034A128800FB02F170
:103180002046FFF7B1FD10BD000000200200002026
:1031900010B5FFF7DBFF00F021F900F005F9012081
:1031A00000F0A2F94FF47A70FDF70EFBCB2000F08F
:1031B0009BF9392000F0B2F92C2000F0AFF9002083
:1031C00000F0ACF9342000F0A9F9022000F0A6F9D3
:1031D000CF2000F089F9002000F0A0F9C12000F014
:1031E0009DF9302000F09AF9E82000F07DF9852063
:1031F00000F094F9002000F091F9782000F08EF9A9
:10320000EA2000F071F9002000F088F9002000F0B9
:1032100085F9ED2000F068F9642000F07FF90320C3
:1032200000F07CF9122000F079F9812000F076F9A5
:10323000F72000F059F9202000F070F9C02000F0CC
:1032400053F9232000F06AF9C12000F04DF9102055
:1032500000F064F9C52000F047F93E2000F05EF967
:10326000282000F05BF9C72000F03EF9862000F02E
:1032700055F9362000F038F9482000F04FF93A208F
:1032800000F032F9552000F049F9B12000F02CF996
:10329000002000F043F9182000F040F9B62000F0BB
:1032A00023F9082000F03AF9822000F037F92720AE
:1032B00000F034F9F22000F017F9002000F02EF9A8
:1032C000262000F011F9012000F028F9E02000F09C
:1032D0000BF90F2000F022F9312000F01FF92B200C
:1032E00000F01CF90C2000F019F90E2000F016F97E
:1032F000082000F013F94E2000F010F9F12000F042
:103300000DF9372000F00AF9072000F007F9102026
:1033100000F004F9032000F001F90E2000F0FEF89F
:10332000092000F0FBF8002000F0F8F8E12000F0A0
:10333000DBF8002000F0F2F80E2000F0EFF8142087
:1033400000F0ECF8032000F0E9F8112000F0E6F8B6
:10335000072000F0E3F8312000F0E0F8C12000F091
:10336000DDF8482000F0DAF8082000F0D7F80F2048
:1033700000F0D4F80C2000F0D1F8312000F0CEF8A5
:10338000362000F0CBF80F2000F0C8F8112000F034
:10339000ABF87820FDF718FA292000F0A5F80020F6
:1033A00000F05EF810BD000010B5012291020A483D
:1033B000FDF746FBC820FDF707FA00224FF48071A5
:1033C0000548FDF73DFBC820FDF7FEF901229102FB
:1033D0000148FDF735FB10BD0008024010B500F0B4
:1033E00025FA00F0B3F800224FF480710148FDF790
:1033F00027FB10BD0008024001B501231A466946AB
:103400000148FEF727FF08BDDC0000202DE9F04150
:1034100004460D4616461F462A2000F065F8201285
:1034200000F07CF8E0B200F079F8301200F076F8A5
:10343000F0B200F073F82B2000F056F8281200F0DC
:103440006DF8E8B200F06AF8381200F067F8F8B2E8
:1034500000F064F82C2000F047F8BDE8F08100008F
:1034600070B504462546362000F03EF80120FDF7F1
:10347000ABF935B1012D0FD0022D18D0032D2CD171
:1034800020E0482000F04AF8F020154908804FF469
:10349000A0701449088021E0282000F03FF84FF484
:1034A000A0700F490880F0200E49088016E088209F
:1034B00000F034F8F0200A4908804FF4A070094960
:1034C00008800BE0E82000F029F84FF4A0700449D0
:1034D0000880F0200349088000E000BF00BF70BDF5
:1034E000020000200000002010B5044600224FF426
:1034F00080710948FDF7A4FA00224FF400710648D4
:10350000FDF79EFA2046FFF777FF012211020248DD
:10351000FDF796FA10BD00000008024010B5044601
:10352000012251020848FDF78BFA00224FF4807106
:103530000548FDF785FA2046FFF75EFF01221102DC
:103540000148FDF77DFA10BD0008024000B587B0C4
:1035500000BF8548006840F01000834908600846B5
:10356000006800F01000019000BF00BF00BF0846D7
:10357000006840F0040008600846006800F004009D
:10358000019000BF00BF00BF0846006840F0200067
:1035900008600846006800F02000019000BF00BFEE
:1035A00000BF0846006840F08000086008460068D8
:1035B00000F08000019000BF00BF00BF0846006817
:1035C00040F0400008600846006800F040000190AC
:1035D00000BF00BF00BF0846006840F00800086058
:1035E0000846006800F00800019000BF00BF00BF5F
:1035F0000846006840F0010008600846006800F0D6
:103600000100019000BF00BF00BF0846006840F005
:10361000020008600846006800F00200019000BF48
:1036200000BF002268215148FDF70AFA0122022159
:103630004F48FDF705FA002240214D48FDF700FAFA
:1036400000224FF4E0614B48FDF7FAF900223821DF
:103650004948FDF7F5F9012240214748FDF7F0F907
:103660001420029000200390049002A93F48FDF727
:10367000D3F86820029001200390002004900320DA
:10368000059002A93948FDF7C7F84FF401500290A0
:1036900000200390049002A93648FDF7BDF80120F0
:1036A0000290364803900020049002A93048FDF7AC
:1036B000B3F842200290012003900020049005906E
:1036C00002A92B48FDF7A8F8802002900020039063
:1036D000049002A92648FDF79FF84FF4E06002909D
:1036E00001200390002004900320059002A92148A6
:1036F000FDF792F8022002902048039000200490E9
:1037000002A91D48FDF788F8782002900120039057
:1037100000200490059002A91748FDF77DF880204D
:103720000290174803900220049002A91248FDF766
:1037300073F8002211460620FDF7E1FC0620FDF794
:10374000D1FC002211460720FDF7D9FC0720FDF728
:10375000C9FC002201211720FDF7D1FC1720FDF73D
:10376000C1FC07B000BD000030380240001002402C
:103770000018024000080240000C02400000111036
:103780000000311010B5154815490860154848600B
:103790000021134881600121C16000210161416164
:1037A0008161C1610162FDF7C1F918B142210EA02A
:1037B00001F0C2FA00210A48FDF74EF918B149217B
:1037C00009A001F0B9FA00210548FDF77AF918B10E
:1037D000502105A001F0B0FA10BD000000540040D7
:1037E00084000020FFEAC0002E2E2F5372632F6941
:1037F00032632E630000000010B5064806490860D9
:103800000846FEF765FC18B1382104A001F094FACF
:1038100010BD000000080650D00000202E2E2F53AF
:1038200072632F726E672E630000000010B512489D
:10383000124908604FF48270486000210F4881608F
:103840004FF4E061C1600021016141614FF40071FA
:1038500081610021C1610162416281620721C1620F
:10386000002101634163FEF763FC18B1472104A006
:1038700001F062FA10BD000000500140DC000020A1
:103880002E2E2F5372632F7370692E630000000079
:1038900000B587B018481949086042F210704860B6
:1038A000002116488160C1604FF4807101610021E0
:1038B00041618161FEF7F2FD18B1412110A001F0D4
:1038C0003BFA4FF48050039003A90C48FEF746FEE4
:1038D00018B147210AA001F02FFA002000900190B2
:1038E000029069460548FEF7A3FD18B14F2104A0D8
:1038F00001F022FA07B000BD0000014040010020A5
:103900002E2E2F5372632F74696D2E6300000000FA
:1039100000B587B018481949086045F25F40486013
:1039200000211648816042F25341C16000210161CB
:1039300041618161FEF7B2FD18B1622110A001F072
:10394000FBF94FF48050039003A90C48FEF706FEE4
:1039500018B168210AA001F0EFF900200090019051
:10396000029069460548FEF763FD18B1702104A076
:1039700001F0E2F907B000BD000401408001002021
:103980002E2E2F5372632F74696D2E63000000007A
:1039900010B50E480E4908604FF4E1304860002130
:1039A0000B488160C16001610C214161002181618E
:1039B000C16101620020064948620846FEF74BFFDC
:1039C00018B1442103A001F0B7F910BD0048004030
:1039D000C00100202E2E2F5372632F7573617274F5
:1039E0002E6300001CB504461420FCF7EDFEDB48F6
:1039F000007800287ED1FFF7B3FB0120FFF730FDF0
:103A00004FF478400A236922E52100900120FFF756
:103A100019FB4FF4FC600A236A22E52100906B2019
:103A2000FFF710FB1F200A236922E5210090D62012
:103A3000FFF708FB4FF6FF70EF2340F23F12002123
:103A400000900846FFF7A8F94FF6FF7001235022B7
:103A500011460090F020FFF7F5FA4FF6FF70A02313
:103A6000012200210090F020FFF7ECFA4FF6FF70E2
:103A700050230122A02100906A20FFF7E3FA4FF6BD
:103A8000FF7050230122A0210090D520FFF7DAFA21
:103A90004FF6FF7001234FF4A072A0210090002088
:103AA000FFF7D0FAAE480278AEA1B04801F046F96F
:103AB00000200A214FF6FF730A46CDE9001041218C
:103AC000AA48FFF7FBFA002005214FF6FF73642296
:103AD000CDE900102221A6A0FFF7F0FA002008216E
:103AE0001F23A522CDE90010F721A3A0FFF7E6FAD6
:103AF000002000E035E008214FF4FC63A522CDE969
:103B000000108D219DA0FFF7D9FA002008214FF465
:103B10007843A522CDE90010222199A0FFF7CEFA23
:103B20004FF6FF7008232822742100904FF4827012
:103B3000FFF788FA4FF6FF7008232822242100900F
:103B40004FF48270FFF77EFA4FF6FF7028230822A9
:103B5000142100904FF48A70FFF774FA01207F4916
:103B6000087000F00FFD00287ED001208549086014
:103B7000854800F07DFC012876D183480088834980
:103B8000088081484088824908803220FCF71CFE6A
:103B90007E48008850280ADC7D480088692806DCB9
:103BA0006F480078012802DB01207A4908707748C5
:103BB000008850280EDC764800886A280ADB7448A2
:103BC0000088D52806DC66480078012802DB022040
:103BD000704908706D48008850280ADC6C480088DD
:103BE000D62806DB5E480078012802DB03206949FD
:103BF000087066480088A52820DB65480088F22800
:103C00001CDB574800783C2818DA0120624908601C
:103C100053480078401C524908700846027851A168
:103C2000524801F08BF800200A214FF6FF730A4634
:103C3000CDE9001041214D48FFF740FA5348008874
:103C4000512825DB51480088A12821DC50480088F4
:103C5000F2281DDB42480078D0B101204E490860AF
:103C60003F480078401E00E02AE03D4908700846C1
:103C700002783CA13D4801F061F800200A214FF68E
:103C8000FF730A46CDE9001041213848FFF716FAC4
:103C90003E480088502813DC3148007801280FDBAB
:103CA00001203D4908602E480078C0EB00108000DC
:103CB0003A49086001203A490870022027490870F3
:103CC00038480078002848D0002036490870364827
:103CD000006800B3224800783C283EDA01202E49D3
:103CE00008601F480078401C1D490870084602788B
:103CF0001CA11E4801F022F800200A214FF6FF7394
:103D00000A46CDE9001041211848FFF7D7F90020F5
:103D10002049087021E024480068F0B91048007874
:103D2000D8B101201C4908600D480078401E0C499C
:103D30000870084602780BA10C4800F0FFFF002035
:103D40000A214FF6FF730A46CDE9001041210748CA
:103D5000FFF7B4F900200F4908701CBD04000020D3
:103D600005000020252E3264000000005C000020C9
:103D70004D696E7574650000480000004D0000003C
:103D80004C0000001C0000202C0000202800002017
:103D90002A00002007000020100000203000002032
:103DA0000600002036000020400000200248006885
:103DB000C0F30220704700000CED00E010B50028B1
:103DC00007DA0A07140E054A00F00F031B1FD4542C
:103DD00003E00A07130E024A135410BD18ED00E069
:103DE00000E400E03EB5044605200121214A0223FB
:103DF000CDE9002102900A46A1211F48FCF7F8FEF8
:103E0000052001211D4A0223CDE9002102901A4616
:103E1000A1211948FCF7ECFE05200121184A0223D4
:103E2000CDE9002102900322A1211348FCF7E0FE16
:103E3000052101221248401C0223CDE901210090F6
:103E40000422A1210C48FCF7D3FE052001210D4AD4
:103E50000223CDE9002102900246A1210648FCF789
:103E6000C7FE074800780649497840EA012006491C
:103E700008603EBD040000208400002007000020F0
:103E800008000020050000203000002010B50023AD
:103E9000234C236000BF00BF00BFBFF34F8F00BFA4
:103EA00000BF00BF231F1868C0F34E3100BFC0F32E
:103EB000C90200BF43F6E07303EA41134FF04044E8
:103EC00004EA82742343174C236000BF00BF131E13
:103ED000A2F10102EED10B1EA1F10101E7D100BF59
:103EE00000BF00BFBFF34F8F00BF00BF00BF0C4B30
:103EF000703B1B6843F48033094C703C236000BF67
:103F000000BF00BFBFF34F8F00BF00BF00BF00BFA7
:103F100000BF00BFBFF36F8F00BF00BF00BF10BD69
:103F200084ED00E060EF00E0F8B504460E4615466B
:103F3000334600224FF4C0512046009500F026F889
:103F400028B1206E40F0200020660320F8BD3346E3
:103F5000002280212046009500F071F828B1206EE3
:103F600040F0200020660320F0E7334600224FF4A3
:103F7000C0612046009500F009F828B1206E40F09D
:103F8000200020660320E1E70020DFE72DE9F84369
:103F900004460E4617461D46DDF8208048E0B6F57B
:103FA000C06F05D127B92068007B00909DF8000004
:103FB000681CE0B32DB1FCF749FDA0EB0800A84256
:103FC00036D32068406820F0E000216848606068CF
:103FD000B0F5827F0DD1A068B0F5004F03D0A06886
:103FE000B0F5806F05D12068006820F0400021689E
:103FF0000860A06AB0F5005F0ED100BF20680068BD
:104000004DF6FF710840216808602068006840F4A0
:1040100000502168086000BF012084F85D0000BFE7
:10402000002084F85C0000BF0320BDE8F883FFE7B0
:10403000206880683040B842B1D10020F5E72DE912
:10404000F04104460E4617461D46DDF818803FE055
:10405000681CE0B32DB1FCF7F9FCA0EB0800A84206
:1040600036D32068406820F0E0002168486060682E
:10407000B0F5827F0DD1A068B0F5004F03D0A068E5
:10408000B0F5806F05D12068006820F040002168FD
:104090000860A06AB0F5005F0ED100BF206800681C
:1040A0004DF6FF710840216808602068006840F400
:1040B00000502168086000BF012084F85D0000BF47
:1040C000002084F85C0000BF0320BDE8F081FFE71A
:1040D000206880683040B842BAD10020F5E710B5BA
:1040E000FCF76CFFFEF79EF910BD000010B5B8B0EC
:1040F00000BF3A48006840F08050384908600846E0
:10410000006800F08050019000BF00BF00BF34483D
:10411000006840F44040324908600846006800F4F6
:104120004040019000BF00BF01202B904FF4A02021
:104130002C900220319041052BA8C161042101621D
:10414000C8214162022181620921C162FDF764FD3B
:1041500020B14FF4DE7123A000F0EEFDFDF722F850
:1041600020B140F2C3111FA000F0E6FD0F20269001
:1041700002202790002028904FF4A05029904FF45F
:1041800080502A90062126A8FDF700FC20B140F2BD
:10419000D11114A000F0D0FD164802900020159017
:1041A0001B90219002A8FDF745F820B140F2DB11E9
:1041B0000CA000F0C1FDFDF7B1FC4FF47A71B0FB2B
:1041C000F1F42046FEF714F90420FEF7FCF8002273
:1041D0001146501EFCF793FF38B010BD4038024026
:1041E000007000402E2E2F5372632F6D61696E2E6A
:1041F00063000000004120001448006840F4700093
:10420000124908601248006840F001001049086037
:1042100000200F49083108600D4800680D4908402A
:104220000B4908600C48091D0860081F006820F44D
:104230008020091F0860002005490C3108604FF0FC
:1042400000600249803908607047000088ED00E096
:1042500000380240FFFFF6FE1030002410B5114870
:104260000078012812D110480078022805D00220D9
:104270000D49087001200D4908600D480068401E76
:104280000B49086008460068FCF76AF906480078A0
:10429000002802DD012000F005FD0648FEF7FBF9CD
:1042A00010BD000006000020040000200C000020CB
:1042B000300000208001002010B5002202682F4B42
:1042C00098420ED0B0F1804F0BD02D4B984208D0C1
:1042D0002C4B984205D02C4B984202D02B4B984245
:1042E00001D1012300E000231BB122F070024B68D2
:1042F0001A43224B984220D0B0F1804F1DD0204B62
:1043000098421AD01F4B984217D01F4B984214D096
:104310001E4B984211D01E4B98420ED01D4B984216
:104320000BD01D4B984208D01C4B984205D01C4B1B
:10433000984202D01B4B984201D1012300E0002398
:104340001BB122F44072CB681A4322F080034C69FF
:1043500043EA040202608B68C3620B688362074B06
:10436000984202D0094B984201D1012300E000237A
:104370000BB10B6903630123436110BD00000140D1
:104380000004004000080040000C00400004014010
:104390000040014000440140004801400018004036
:1043A000001C00400020004030B50C460021816810
:1043B00021F47F4142EA032525432943816030BD32
:1043C0000A460021816821F0700142F00703194379
:1043D0008160704730B50B46144600210022026A06
:1043E000056A25F001050562816921F0F00141EAC5
:1043F000041122F00A021A438161026230BD30B515
:104400000B46144600210022056A25F010050562BE
:104410008169026A21F4704141EA043122F0A0026C
:1044200042EA03128161026230BD000070B51025BE
:10443000002416E04FF6FF7000EA44040122082130
:104440000A48FCF7FDFA002208210848FCF7F8FAB0
:1044500010210648FCF7ECFA08B1601C84B2681E13
:10446000C5B2002DE6DC204670BD00000010024001
:104470002DE9F84F0546012208213F48FCF7E0FAF4
:10448000012220213C48FCF7DBFA012240213A4876
:10449000FCF7D6FA00200090002681464FF47A7A85
:1044A0000027002240213448FCF7CAFA14E090208B
:1044B00000F074F8FFF7BAFF064600983044009009
:1044C000B144D02000F06AF8FFF7B0FF0446A344DF
:1044D000A044AAF1010A7F1CBAF1000F05D0042103
:1044E0002548FCF7A5FA0028E1D001224021224806
:1044F000FCF7A6FAB7F57A7F38D104211E48FCF7FD
:1045000097FA90BBB8FBF7F8B9FBF7F91FFA88F4F4
:104510001FFA89F6604284B2704286B240F21110EE
:1045200094FBF0F0C0F1E30000EE100AB8EEC00B0F
:104530009FED121B20EE010BBCEEC00B10EE100A1B
:104540002880CC2096FBF0F00F3800EE100AB8EE71
:10455000C00B9FED0A1B20EE010BBCEEC00B10EE52
:10456000100A68800120BDE8F88FFFE7002028804E
:10457000688000BFF7E70000001002408FC2F528F6
:104580005C8FF23F10B504210348FCF751FA08B9DB
:10459000012010BD0020FCE70010024070B5044669
:1045A0000825002208211148FCF74AFA1BE004F014
:1045B000800028B1012220210C48FCF741FA04E0D8
:1045C000002220210948FCF73BFA6006040E012274
:1045D00008210648FCF734FA002208210348FCF7BA
:1045E0002FFA681EC5B2002DE1DC70BD001002403C
:1045F0001CB504464D48006810B900204C490870AD
:10460000FFF7C0FF00287DD04A48FFF731FF01289F
:1046100079D1484800884849088046484088474939
:1046200008803220FCF7D0F843480088502844DC4A
:1046300042480088A02840DC4148006802283CD15C
:10464000FFF7A0FF18B101203E49086005E00020F7
:104650003C49086001203C4908603A48006801284C
:1046600010D13948006801280CD138490860384811
:10467000007808B9012000E00020354908700020CA
:10468000314908603248007801280BD1002004210C
:104690004FF6FF73B622CDE9001016212DA0FEF7CC
:1046A0000DFD0AE0002004214FF6FF73B622CDE98C
:1046B0000010162129A0FEF701FD1F480088502890
:1046C00032DC1E480088A1282EDB1D480068022825
:1046D0002AD1002220212348FCF7B2F90022102120
:1046E0002048FCF7ADF9002208211E48FCF7A8F984
:1046F000012202211C48FCF7A3F90120134908609C
:10470000002001E00DE00FE0094908700120174981
:104710000860002005490860154908700C490870B8
:1047200002E00220064908601CBD000030000020A5
:10473000040000202C000020280000202A00002077
:104740001C00002014000020180000201000002091
:10475000060000205041555345000000535441527B
:1047600054000000000C0240001802400C00002021
:104770000500002090F8241001F0010139B1016812
:10478000496821F40031826A11430268516090F84F
:10479000241001F0020139B10168496821F4803127
:1047A000C26A11430268516090F8241001F00401BC
:1047B00039B10168496821F48021026B1143026814
:1047C000516090F8241001F0080139B1016849687E
:1047D00021F40041426B11430268516090F82410AB
:1047E00001F0100139B10168896821F48051826BB0
:1047F00011430268916090F8241001F0200139B152
:104800000168896821F40051C26B1143026891600C
:1048100090F8241001F0400199B10168496821F431
:104820008011026C114302685160016CB1F5801F68
:1048300007D10168496821F4C001426C1143026844
:10484000516090F8241001F0800139B10168496885
:1048500021F40021826C114302685160704738B521
:10486000044600250020E066FCF7F0F805462068C5
:10487000006800F0080008280CD16FF07E402B463D
:1048800000224FF400110090204600F0D5F908B145
:10489000032038BD202084F8690084F86A0000BF36
:1048A000002084F8680000BF00BFF2E72DE9F04760
:1048B0000446002510260027A846A9462169A068BD
:1048C000084361690843E16940EA0105206800681E
:1048D000CD4908402843216808602068406820F4DA
:1048E0004050E168084321684860216AA06940EAB5
:1048F00001052068806820F43060284321688860C2
:1049000000BFC2492068884215D1C148006800F044
:10491000030030B1012808D0022804D0032808D1B0
:1049200005E0012606E0022604E0042602E008264F
:1049300000E000BFC1E0B7492068884215D1B44803
:10494000006800F00C0030B1042808D0082804D01A
:104950000C2808D105E0002606E0022604E0042623
:1049600002E0082600E000BFA7E0AB4920688842CB
:1049700015D1A748006800F0300030B1102808D0E9
:10498000202804D0302808D105E0002606E00226C1
:1049900004E0042602E0082600E000BF8DE09F4905
:1049A0002068884215D19A48006800F0C00030B1F4
:1049B000402808D0802804D0C02808D105E000266F
:1049C00006E0022604E0042602E0082600E000BF1C
:1049D00073E093492068884218D18D48006800F43C
:1049E000407048B1B0F5807F0AD0B0F5007F05D0A7
:1049F000B0F5407F08D105E0002606E0022604E07D
:104A0000042602E0082600E000BF56E08549206841
:104A1000884218D17E48006800F4406048B1B0F583
:104A2000806F0AD0B0F5006F05D0B0F5406F08D1A7
:104A300005E0012606E0022604E0042602E008263E
:104A400000E000BF39E078492068884218D17048FA
:104A5000006800F4405048B1B0F5805F0AD0B0F56E
:104A6000005F05D0B0F5405F08D105E0002606E004
:104A7000022604E0042602E0082600E000BF1CE055
:104A80006A492068884218D16148006800F44040B3
:104A900048B1B0F5804F0AD0B0F5004F05D0B0F561
:104AA000404F08D105E0002606E0022604E0042677
:104AB00002E0082600E000BF00BF00BFE069B0F5DB
:104AC000004F52D1042E2BD005DC4EB1012E12D056
:104AD000022E3BD11AE0082E2DD0102E36D136E012
:104AE000FDF722F84000616800EB5100B0FBF1F0E7
:104AF0001FFA80F82EE0FDF727F84000616800EB10
:104B00005100B0FBF1F01FFA80F823E048496068DB
:104B100001EB50006168B0FBF1F01FFA80F819E07A
:104B2000FDF722F84000616800EB5100B0FBF1F0A6
:104B30001FFA80F80EE04FF48031606801EB5000FE
:104B40006168B0FBF1F01FFA80F803E000BF4FF09E
:104B5000010900BF00BF4FF6F07008EA0007C8F374
:104B6000420007432068C7604AE0042E2CD005DCD1
:104B70004EB1012E12D0022E3DD11AE0082E2ED0B9
:104B8000102E38D138E0FCF7CFFF616800EB510000
:104B9000B0FBF1F080B22168C86030E0FCF7D4FFD0
:104BA000616800EB5100B0FBF1F080B22168C86091
:104BB00025E02049606801EB50006168B0FBF1F02E
:104BC00080B22168C8601AE0FCF7CEFF616800EB94
:104BD0005100B0FBF1F080B22168C8600FE04FF4E3
:104BE0000041606801EB50006168B0FBF1F080B2F9
:104BF0002168C86003E000BF4FF0010900BF00BF9B
:104C00004846BDE8F0870000F369FFEF001001405F
:104C1000903802400044004000480040004C0040F2
:104C2000005000400014014000780040007C00402B
:104C30000048E8010024F4002DE9F04104460D4647
:104C400017469846069E21E0701CF8B12EB1FBF77E
:104C5000FDFEA0EB0800B04218D32068006820F4E5
:104C6000D070216808602068806820F00100216809
:104C70008860202084F8690084F86A0000BF002062
:104C800084F8680000BF0320BDE8F0812068C06997
:104C90002840A84201D1012000E00020B842D3D032
:104CA0000020F1E77FB505461D4800788DF80C001F
:104CB0001B480088000A8DF80D001A4800781A4930
:104CC00048701A48007888709DF80C00C8709DF8EC
:104CD0000D00087116480078487101241DE0052177
:104CE000012211482044CDE901210090A2B2022303
:104CF000A0211048FCF75AF8052100220A48204458
:104D0000CDE901210090A2B20223A0210948FCF7BD
:104D10004DF80A20FBF758FD641C052CDFDD7FBD34
:104D200030000020040000207A000020070000204E
:104D3000050000208400002000BFFEE70FB4084BF0
:104D400010B504A902AA039800F01CF8044602A9B1
:104D5000002000F0B8F9204610BC5DF814FB0000FC
:104D6000C750000802E008C8121F08C1002AFAD183
:104D700070477047002001E001C1121F002AFBD1DB
:104D8000704700002DE9FF4F8BB08846054600268E
:104D900006E025280BD0DDE90D1290476D1C761C2E
:104DA00028780028F5D10FB03046BDE8F08F0024F8
:104DB000A146A2460122AE4900E0044315F8013F96
:104DC000203B02FA03F00842F7D128782A2810D0B5
:104DD0006FF02F022878A0F13001092915D809EBCE
:104DE000890102EB410144F0020400EB01096D1C52
:104DF000F0E758F8041B5FEA010903D544F40054B6
:104E0000C9F1000944F002046D1C28782E2817D13E
:104E100015F8010F44F004042A280ED06FF02F0279
:104E20002878A0F1300109290AD80AEB8A0102EB9F
:104E3000410100EB010A6D1CF2E758F804AB6D1C50
:104E400028786C280FD006DC4C2817D068280DD0A5
:104E50006A2814D104E0742810D07A280FD10DE00C
:104E600044F400140AE044F4801401E044F44014D3
:104E70006978814202D104F580146D1C6D1C28787C
:104E8000692865D006DC00288DD0632827D06428E7
:104E900006D15DE06E2808D073282AD0752877D017
:104EA000DDE90D129047761CE0E0C4F302500228C1
:104EB00009D003280DD0D8F8001004280DD00E60BA
:104EC00008F10408D2E0D8F80010F217C1E9006236
:104ED000F6E7D8F800100E80F2E70E70F0E718F849
:104EE000041B8DF8001000208DF80100EB46012016
:104EF00003E058F804BB4FF0FF3061074FF00007A4
:104F000001D40AE07F1C57450DDA8742FADB1BF813
:104F100007100029F6D106E07F1C8742FCDB1BF856
:104F200007100029F8D1DDE90D23A9EB0700814620
:104F3000214600F0B1F83044C61904E0DDE90D1255
:104F40001BF8010B90477F1EF8D22146484688E0A7
:104F500058F8040BC4F302514FF00A0B032900D197
:104F600000B2042900D140B2002802DA40422D21CB
:104F700002E0210505D52B218DF82410012104E044
:104F800006E0E10710D02021F6E708AF089113E012
:104F900058F8040BC4F302514FF00A0B032900D157
:104FA00080B2042900D1C0B20021EEE75946FBF7D8
:104FB00070F9303107F8011D0028F7D1ADEB07007B
:104FC00000F1200B600702D524F4803401E04FF09B
:104FD000010ADA4502DDAAEB0B0000E00020824660
:104FE00000EB0B0108980144A9EB01000A90E003D3
:104FF00006D4DDE90D2321460A9800F04DF8064459
:105000004FF0000908E009A911F80900DDE90D12C7
:10501000904709F10109761C08998945F3DBE00303
:105020000CD5DDE90D2321460A9800F035F8064439
:1050300004E0DDE90D1230209047761CBAF1000142
:10504000AAF1010AF5DC05E0DDE90D1217F8010B04
:105050009047761CBBF10001ABF1010BF4DC0A9820
:105060002146DDE90D2300F005F806446D1C97E6A6
:10507000092801002DE9F041044600251E46174687
:10508000880404D405E039462020B0476D1C641E16
:10509000F9D52846BDE8F0812DE9F0410446002508
:1050A0001E469046C80301D5302700E0202788041B
:1050B00004D505E041463846B0476D1C641EF9D55D
:1050C0002846BDE8F0810A68531C0B6010707047D9
:1050D00010B5002821D0114B0022001F196803E0F1
:1050E000814203D80A4649680029F9D152B11368B0
:1050F000841A9C4204D1006818441060104602E0F3
:10510000506000E0186039B102680B1A934203D175
:105110000B681A4402604968416010BD54000020C9
:1051200000BF00BF00BF00BF00BFBFF34F8F00BF75
:1051300000BF00BF00BF00BF00BFBFF36F8F00BF45
:1051400000BF00BF0020594908605948006840F47A
:1051500000305749086000BF00BF00BFBFF34F8F4A
:1051600000BF00BF00BF00BF00BF00BFBFF36F8F15
:1051700000BF00BF00BF00BFFEF788FEFBF72AFF9D
:10518000FEF7B4FFFEF7E2F9FEF702FCFEF74EFB76
:10519000FEF77EFBFEF730FBFEF7BAFBFEF7F2FAF6
:1051A0004448FDF7CBF9FDF7F3FF0020FDF7D8FFEA
:1051B0000120FEF755F90120FEF714FE3E48007865
:1051C0003E4908600120FBF733F93D48006800289C
:1051D00007DD3C480078022803D139480068FBF716
:1051E000BFF93748006810B900203649087001201F
:1051F0003549086058E00120FBF792F80120FBF7E1
:10520000D3F83048007818B12E480078012805D12D
:105210002E48006810B90120FEF7E4FB2948007809
:10522000022805D12948006810B90120FFF7E0F9EC
:1052300027480078012823D12448006800BB0022B9
:1052400002212448FBF7FCFB1B480078012804D00E
:10525000022808D0032812D10BE0012220211E4889
:10526000FBF7EEFB0BE0012210211B48FBF7E8FBEC
:1052700005E0012208211848FBF7E2FB00BF13E01C
:10528000002220211448FBF7DBFB002210211248EA
:10529000FBF7D6FB002208210F48FBF7D1FB0122C8
:1052A00002210C48FBF7CCFBA5E7000050EF00E023
:1052B00014ED00E080010020070000202400002001
:1052C00030000020040000200C00002020000020FE
:1052D0000600002000180240000C0240F0B50B3020
:1052E000154D20F007010024144A0FE003688B429B
:1052F0000BD38B4205D95E1A43184768C3E9006790
:1053000000E04368136002C004E0021D106800283A
:10531000ECD12046002802D1286808B10020F0BD59
:10532000064A07481060074A121A22F00702C0E92D
:10533000002401202860D7E75800002054000020F6
:1053400034020020300400200000000000005C0057
:1053500000000000060006000000287C287C2800D1
:105360005C54FE5474004420100844002854542017
:1053700050000600000000003844000000004438DF
:105380000000000002070200000010107C10100056
:10539000C0000000000010101010100040000000BD
:1053A000000060100C0000007C64544C7C00487CC1
:1053B00040000000645454544800445454546C0059
:1053C0003C20702020005C54545424007C545454DD
:1053D0007400040464140C007C5454547C005C5429
:1053E00054547C00440000000000C4000000000091
:1053F00010284400000028282828280044281000ED
:1054000000000804540800007C4454545C007C24D0
:1054100024247C007C5454546C007C444444440058
:105420007C44444438007C54545444007C14141488
:1054300004007C44445474007C1010107C004444EC
:105440007C444400604040447C007C1010284400B0
:105450007C40404040007C0810087C007C08102004
:105460007C003844444438007C14141408003C2464
:1054700064243C007C14141468005C54545474007C
:1054800004047C0404007C4040407C000C3040302C
:105490000C003C4030403C004428102844000C10D4
:1054A00060100C004464544C44007C440000000034
:1054B0000C1060000000447C0000000000010001AE
:1054C00000004040404040400001000000007C24BB
:1054D00024247C007C5454546C007C444444440098
:1054E0007C44444438007C54545444007C141414C8
:1054F00004007C44445474007C1010107C0044442C
:105500007C444400604040447C007C1010284400EF
:105510007C40404040007C0810087C007C08102043
:105520007C003844444438007C14141408003C24A3
:1055300064243C007C14141468005C5454547400BB
:1055400004047C0404007C4040407C000C3040306B
:105550000C003C4030403C004428102844000C1013
:1055600060100C004464544C4400107C4400000063
:105570006C0000000000447C1000000002010201E9
:10558000000000000000000000000000000000001B
:1055900001020304060708090000000001020304D9
:1055A000C0550008000000205C000000644D0008A9
:1055B0001C5600085C000020D4070000744D000851
:1055C000F0004001000000000000000001000000A9
:1055D00000000000000000000100000000000000CA
:1055E00000000000000000000000000000000000BB
:1055F00000000000000000000000000000000000AB
:105600000000000000000000100000000100000089
:0C5610000024F400000000000000000076
:04000005080001F9F5
:00000001FF
